{
  "_format": "hh-sol-artifact-1",
  "contractName": "GlitchNFT",
  "sourceName": "contracts/GlitchNFT.sol",
  "abi": [
    {
      "inputs": [
        {
          "internalType": "address",
          "name": "initialOwner",
          "type": "address"
        }
      ],
      "stateMutability": "nonpayable",
      "type": "constructor"
    },
    {
      "inputs": [
        {
          "internalType": "address",
          "name": "sender",
          "type": "address"
        },
        {
          "internalType": "uint256",
          "name": "tokenId",
          "type": "uint256"
        },
        {
          "internalType": "address",
          "name": "owner",
          "type": "address"
        }
      ],
      "name": "ERC721IncorrectOwner",
      "type": "error"
    },
    {
      "inputs": [
        {
          "internalType": "address",
          "name": "operator",
          "type": "address"
        },
        {
          "internalType": "uint256",
          "name": "tokenId",
          "type": "uint256"
        }
      ],
      "name": "ERC721InsufficientApproval",
      "type": "error"
    },
    {
      "inputs": [
        {
          "internalType": "address",
          "name": "approver",
          "type": "address"
        }
      ],
      "name": "ERC721InvalidApprover",
      "type": "error"
    },
    {
      "inputs": [
        {
          "internalType": "address",
          "name": "operator",
          "type": "address"
        }
      ],
      "name": "ERC721InvalidOperator",
      "type": "error"
    },
    {
      "inputs": [
        {
          "internalType": "address",
          "name": "owner",
          "type": "address"
        }
      ],
      "name": "ERC721InvalidOwner",
      "type": "error"
    },
    {
      "inputs": [
        {
          "internalType": "address",
          "name": "receiver",
          "type": "address"
        }
      ],
      "name": "ERC721InvalidReceiver",
      "type": "error"
    },
    {
      "inputs": [
        {
          "internalType": "address",
          "name": "sender",
          "type": "address"
        }
      ],
      "name": "ERC721InvalidSender",
      "type": "error"
    },
    {
      "inputs": [
        {
          "internalType": "uint256",
          "name": "tokenId",
          "type": "uint256"
        }
      ],
      "name": "ERC721NonexistentToken",
      "type": "error"
    },
    {
      "inputs": [
        {
          "internalType": "address",
          "name": "owner",
          "type": "address"
        }
      ],
      "name": "OwnableInvalidOwner",
      "type": "error"
    },
    {
      "inputs": [
        {
          "internalType": "address",
          "name": "account",
          "type": "address"
        }
      ],
      "name": "OwnableUnauthorizedAccount",
      "type": "error"
    },
    {
      "anonymous": false,
      "inputs": [
        {
          "indexed": true,
          "internalType": "address",
          "name": "owner",
          "type": "address"
        },
        {
          "indexed": true,
          "internalType": "address",
          "name": "approved",
          "type": "address"
        },
        {
          "indexed": true,
          "internalType": "uint256",
          "name": "tokenId",
          "type": "uint256"
        }
      ],
      "name": "Approval",
      "type": "event"
    },
    {
      "anonymous": false,
      "inputs": [
        {
          "indexed": true,
          "internalType": "address",
          "name": "owner",
          "type": "address"
        },
        {
          "indexed": true,
          "internalType": "address",
          "name": "operator",
          "type": "address"
        },
        {
          "indexed": false,
          "internalType": "bool",
          "name": "approved",
          "type": "bool"
        }
      ],
      "name": "ApprovalForAll",
      "type": "event"
    },
    {
      "anonymous": false,
      "inputs": [
        {
          "indexed": false,
          "internalType": "uint256",
          "name": "_fromTokenId",
          "type": "uint256"
        },
        {
          "indexed": false,
          "internalType": "uint256",
          "name": "_toTokenId",
          "type": "uint256"
        }
      ],
      "name": "BatchMetadataUpdate",
      "type": "event"
    },
    {
      "anonymous": false,
      "inputs": [
        {
          "indexed": true,
          "internalType": "address",
          "name": "creator",
          "type": "address"
        },
        {
          "indexed": true,
          "internalType": "uint256",
          "name": "tokenId",
          "type": "uint256"
        },
        {
          "indexed": false,
          "internalType": "string",
          "name": "tokenURI",
          "type": "string"
        }
      ],
      "name": "GlitchArtMinted",
      "type": "event"
    },
    {
      "anonymous": false,
      "inputs": [
        {
          "indexed": false,
          "internalType": "uint256",
          "name": "_tokenId",
          "type": "uint256"
        }
      ],
      "name": "MetadataUpdate",
      "type": "event"
    },
    {
      "anonymous": false,
      "inputs": [
        {
          "indexed": true,
          "internalType": "address",
          "name": "previousOwner",
          "type": "address"
        },
        {
          "indexed": true,
          "internalType": "address",
          "name": "newOwner",
          "type": "address"
        }
      ],
      "name": "OwnershipTransferred",
      "type": "event"
    },
    {
      "anonymous": false,
      "inputs": [
        {
          "indexed": true,
          "internalType": "address",
          "name": "from",
          "type": "address"
        },
        {
          "indexed": true,
          "internalType": "address",
          "name": "to",
          "type": "address"
        },
        {
          "indexed": true,
          "internalType": "uint256",
          "name": "tokenId",
          "type": "uint256"
        }
      ],
      "name": "Transfer",
      "type": "event"
    },
    {
      "inputs": [
        {
          "internalType": "address",
          "name": "to",
          "type": "address"
        },
        {
          "internalType": "uint256",
          "name": "tokenId",
          "type": "uint256"
        }
      ],
      "name": "approve",
      "outputs": [],
      "stateMutability": "nonpayable",
      "type": "function"
    },
    {
      "inputs": [
        {
          "internalType": "address",
          "name": "owner",
          "type": "address"
        }
      ],
      "name": "balanceOf",
      "outputs": [
        {
          "internalType": "uint256",
          "name": "",
          "type": "uint256"
        }
      ],
      "stateMutability": "view",
      "type": "function"
    },
    {
      "inputs": [
        {
          "internalType": "address",
          "name": "to",
          "type": "address"
        },
        {
          "internalType": "string[]",
          "name": "uris",
          "type": "string[]"
        }
      ],
      "name": "batchMint",
      "outputs": [],
      "stateMutability": "nonpayable",
      "type": "function"
    },
    {
      "inputs": [
        {
          "internalType": "uint256",
          "name": "",
          "type": "uint256"
        }
      ],
      "name": "creators",
      "outputs": [
        {
          "internalType": "address",
          "name": "",
          "type": "address"
        }
      ],
      "stateMutability": "view",
      "type": "function"
    },
    {
      "inputs": [
        {
          "internalType": "uint256",
          "name": "tokenId",
          "type": "uint256"
        }
      ],
      "name": "getApproved",
      "outputs": [
        {
          "internalType": "address",
          "name": "",
          "type": "address"
        }
      ],
      "stateMutability": "view",
      "type": "function"
    },
    {
      "inputs": [
        {
          "internalType": "address",
          "name": "owner",
          "type": "address"
        },
        {
          "internalType": "address",
          "name": "operator",
          "type": "address"
        }
      ],
      "name": "isApprovedForAll",
      "outputs": [
        {
          "internalType": "bool",
          "name": "",
          "type": "bool"
        }
      ],
      "stateMutability": "view",
      "type": "function"
    },
    {
      "inputs": [],
      "name": "name",
      "outputs": [
        {
          "internalType": "string",
          "name": "",
          "type": "string"
        }
      ],
      "stateMutability": "view",
      "type": "function"
    },
    {
      "inputs": [],
      "name": "owner",
      "outputs": [
        {
          "internalType": "address",
          "name": "",
          "type": "address"
        }
      ],
      "stateMutability": "view",
      "type": "function"
    },
    {
      "inputs": [
        {
          "internalType": "uint256",
          "name": "tokenId",
          "type": "uint256"
        }
      ],
      "name": "ownerOf",
      "outputs": [
        {
          "internalType": "address",
          "name": "",
          "type": "address"
        }
      ],
      "stateMutability": "view",
      "type": "function"
    },
    {
      "inputs": [],
      "name": "renounceOwnership",
      "outputs": [],
      "stateMutability": "nonpayable",
      "type": "function"
    },
    {
      "inputs": [
        {
          "internalType": "address",
          "name": "to",
          "type": "address"
        },
        {
          "internalType": "string",
          "name": "uri",
          "type": "string"
        }
      ],
      "name": "safeMint",
      "outputs": [
        {
          "internalType": "uint256",
          "name": "",
          "type": "uint256"
        }
      ],
      "stateMutability": "nonpayable",
      "type": "function"
    },
    {
      "inputs": [
        {
          "internalType": "address",
          "name": "from",
          "type": "address"
        },
        {
          "internalType": "address",
          "name": "to",
          "type": "address"
        },
        {
          "internalType": "uint256",
          "name": "tokenId",
          "type": "uint256"
        }
      ],
      "name": "safeTransferFrom",
      "outputs": [],
      "stateMutability": "nonpayable",
      "type": "function"
    },
    {
      "inputs": [
        {
          "internalType": "address",
          "name": "from",
          "type": "address"
        },
        {
          "internalType": "address",
          "name": "to",
          "type": "address"
        },
        {
          "internalType": "uint256",
          "name": "tokenId",
          "type": "uint256"
        },
        {
          "internalType": "bytes",
          "name": "data",
          "type": "bytes"
        }
      ],
      "name": "safeTransferFrom",
      "outputs": [],
      "stateMutability": "nonpayable",
      "type": "function"
    },
    {
      "inputs": [
        {
          "internalType": "address",
          "name": "operator",
          "type": "address"
        },
        {
          "internalType": "bool",
          "name": "approved",
          "type": "bool"
        }
      ],
      "name": "setApprovalForAll",
      "outputs": [],
      "stateMutability": "nonpayable",
      "type": "function"
    },
    {
      "inputs": [
        {
          "internalType": "bytes4",
          "name": "interfaceId",
          "type": "bytes4"
        }
      ],
      "name": "supportsInterface",
      "outputs": [
        {
          "internalType": "bool",
          "name": "",
          "type": "bool"
        }
      ],
      "stateMutability": "view",
      "type": "function"
    },
    {
      "inputs": [],
      "name": "symbol",
      "outputs": [
        {
          "internalType": "string",
          "name": "",
          "type": "string"
        }
      ],
      "stateMutability": "view",
      "type": "function"
    },
    {
      "inputs": [
        {
          "internalType": "uint256",
          "name": "tokenId",
          "type": "uint256"
        }
      ],
      "name": "tokenURI",
      "outputs": [
        {
          "internalType": "string",
          "name": "",
          "type": "string"
        }
      ],
      "stateMutability": "view",
      "type": "function"
    },
    {
      "inputs": [
        {
          "internalType": "address",
          "name": "owner",
          "type": "address"
        }
      ],
      "name": "tokensOfOwner",
      "outputs": [
        {
          "internalType": "uint256[]",
          "name": "",
          "type": "uint256[]"
        }
      ],
      "stateMutability": "view",
      "type": "function"
    },
    {
      "inputs": [],
      "name": "totalSupply",
      "outputs": [
        {
          "internalType": "uint256",
          "name": "",
          "type": "uint256"
        }
      ],
      "stateMutability": "view",
      "type": "function"
    },
    {
      "inputs": [
        {
          "internalType": "address",
          "name": "from",
          "type": "address"
        },
        {
          "internalType": "address",
          "name": "to",
          "type": "address"
        },
        {
          "internalType": "uint256",
          "name": "tokenId",
          "type": "uint256"
        }
      ],
      "name": "transferFrom",
      "outputs": [],
      "stateMutability": "nonpayable",
      "type": "function"
    },
    {
      "inputs": [
        {
          "internalType": "address",
          "name": "newOwner",
          "type": "address"
        }
      ],
      "name": "transferOwnership",
      "outputs": [],
      "stateMutability": "nonpayable",
      "type": "function"
    }
  ],
  "bytecode": "0x608060405234801562000010575f80fd5b50604051620019fc380380620019fc833981016040819052620000339162000131565b8060405180604001604052806011815260200170476c69746368204172742053747564696f60781b8152506040518060400160405280600681526020016508e9892a886960d31b815250815f90816200008d9190620001fe565b5060016200009c8282620001fe565b5050506001600160a01b038116620000cd57604051631e4fbdf760e01b81525f600482015260240160405180910390fd5b620000d881620000e0565b5050620002ca565b600780546001600160a01b038381166001600160a01b0319831681179093556040519116919082907f8be0079c531659141344cd1fd0a4f28419497f9722a3daafe3b4186f6b6457e0905f90a35050565b5f6020828403121562000142575f80fd5b81516001600160a01b038116811462000159575f80fd5b9392505050565b634e487b7160e01b5f52604160045260245ffd5b600181811c908216806200018957607f821691505b602082108103620001a857634e487b7160e01b5f52602260045260245ffd5b50919050565b601f821115620001f957805f5260205f20601f840160051c81016020851015620001d55750805b601f840160051c820191505b81811015620001f6575f8155600101620001e1565b50505b505050565b81516001600160401b038111156200021a576200021a62000160565b62000232816200022b845462000174565b84620001ae565b602080601f83116001811462000268575f8415620002505750858301515b5f19600386901b1c1916600185901b178555620002c2565b5f85815260208120601f198616915b82811015620002985788860151825594840194600190910190840162000277565b5085821015620002b657878501515f19600388901b60f8161c191681555b505060018460011b0185555b505050505050565b61172480620002d85f395ff3fe608060405234801561000f575f80fd5b5060043610610132575f3560e01c80638462151c116100b4578063c87b56dd11610079578063c87b56dd14610278578063cd53d08e1461028b578063d204c45e146102b3578063e985e9c5146102c6578063f2f18baa146102d9578063f2fde38b146102ec575f80fd5b80638462151c146102195780638da5cb5b1461023957806395d89b411461024a578063a22cb46514610252578063b88d4fde14610265575f80fd5b806323b872dd116100fa57806323b872dd146101c557806342842e0e146101d85780636352211e146101eb57806370a08231146101fe578063715018a614610211575f80fd5b806301ffc9a71461013657806306fdde031461015e578063081812fc14610173578063095ea7b31461019e57806318160ddd146101b3575b5f80fd5b6101496101443660046110dd565b6102ff565b60405190151581526020015b60405180910390f35b61016661030f565b6040516101559190611145565b610186610181366004611157565b61039e565b6040516001600160a01b039091168152602001610155565b6101b16101ac366004611189565b6103c5565b005b6008545b604051908152602001610155565b6101b16101d33660046111b1565b6103d4565b6101b16101e63660046111b1565b610462565b6101866101f9366004611157565b610481565b6101b761020c3660046111ea565b61048b565b6101b16104d0565b61022c6102273660046111ea565b6104e3565b6040516101559190611203565b6007546001600160a01b0316610186565b6101666105a2565b6101b1610260366004611246565b6105b1565b6101b1610273366004611319565b6105bc565b610166610286366004611157565b6105d4565b610186610299366004611157565b60096020525f90815260409020546001600160a01b031681565b6101b76102c13660046113ae565b6105df565b6101496102d43660046113f9565b61066f565b6101b16102e736600461142a565b61069c565b6101b16102fa3660046111ea565b6106d3565b5f61030982610710565b92915050565b60605f805461031d906114f9565b80601f0160208091040260200160405190810160405280929190818152602001828054610349906114f9565b80156103945780601f1061036b57610100808354040283529160200191610394565b820191905f5260205f20905b81548152906001019060200180831161037757829003601f168201915b5050505050905090565b5f6103a882610734565b505f828152600460205260409020546001600160a01b0316610309565b6103d082823361076c565b5050565b6001600160a01b03821661040257604051633250574960e11b81525f60048201526024015b60405180910390fd5b5f61040e838333610779565b9050836001600160a01b0316816001600160a01b03161461045c576040516364283d7b60e01b81526001600160a01b03808616600483015260248201849052821660448201526064016103f9565b50505050565b61047c83838360405180602001604052805f8152506105bc565b505050565b5f61030982610734565b5f6001600160a01b0382166104b5576040516322718ad960e21b81525f60048201526024016103f9565b506001600160a01b03165f9081526003602052604090205490565b6104d861086b565b6104e15f610898565b565b60605f6104ef8361048b565b90505f8167ffffffffffffffff81111561050b5761050b61127f565b604051908082528060200260200182016040528015610534578160200160208202803683370190505b5090505f805b600854811015610598575f818152600260205260409020546001600160a01b03878116911603610590578083838151811061057757610577611531565b60209081029190910101528161058c81611545565b9250505b60010161053a565b5090949350505050565b60606001805461031d906114f9565b6103d03383836108e9565b6105c78484846103d4565b61045c33858585856109b0565b606061030982610ad8565b600880545f91829190826105f283611545565b9190505590506106028482610b59565b61060c8184610b72565b5f818152600960205260409081902080546001600160a01b0319163390811790915590518291907ff37f756c1826fa6c3df8551b224cfde0d6ef64c8e89b74e70a7507213461f77790610660908790611145565b60405180910390a39392505050565b6001600160a01b039182165f90815260056020908152604080832093909416825291909152205460ff1690565b5f5b815181101561047c576106ca838383815181106106bd576106bd611531565b60200260200101516105df565b5060010161069e565b6106db61086b565b6001600160a01b03811661070457604051631e4fbdf760e01b81525f60048201526024016103f9565b61070d81610898565b50565b5f6001600160e01b03198216632483248360e11b1480610309575061030982610bc1565b5f818152600260205260408120546001600160a01b03168061030957604051637e27328960e01b8152600481018490526024016103f9565b61047c8383836001610c10565b5f828152600260205260408120546001600160a01b03908116908316156107a5576107a5818486610d14565b6001600160a01b038116156107df576107c05f855f80610c10565b6001600160a01b0381165f90815260036020526040902080545f190190555b6001600160a01b0385161561080d576001600160a01b0385165f908152600360205260409020805460010190555b5f8481526002602052604080822080546001600160a01b0319166001600160a01b0389811691821790925591518793918516917fddf252ad1be2c89b69c2b068fc378daa952ba7f163c4a11628f55a4df523b3ef91a4949350505050565b6007546001600160a01b031633146104e15760405163118cdaa760e01b81523360048201526024016103f9565b600780546001600160a01b038381166001600160a01b0319831681179093556040519116919082907f8be0079c531659141344cd1fd0a4f28419497f9722a3daafe3b4186f6b6457e0905f90a35050565b6001600160a01b0383166109125760405163a9fbf51f60e01b81525f60048201526024016103f9565b6001600160a01b03821661094457604051630b61174360e31b81526001600160a01b03831660048201526024016103f9565b6001600160a01b038381165f81815260056020908152604080832094871680845294825291829020805460ff191686151590811790915591519182527f17307eab39ab6107e8899845ad3d59bd9653f200f220920489ca2b5937696c31910160405180910390a3505050565b6001600160a01b0383163b15610ad157604051630a85bd0160e11b81526001600160a01b0384169063150b7a02906109f2908890889087908790600401611569565b6020604051808303815f875af1925050508015610a2c575060408051601f3d908101601f19168201909252610a29918101906115a5565b60015b610a93573d808015610a59576040519150601f19603f3d011682016040523d82523d5f602084013e610a5e565b606091505b5080515f03610a8b57604051633250574960e11b81526001600160a01b03851660048201526024016103f9565b805160208201fd5b6001600160e01b03198116630a85bd0160e11b14610acf57604051633250574960e11b81526001600160a01b03851660048201526024016103f9565b505b5050505050565b6060610ae382610734565b505f610af960408051602081019091525f815290565b90505f610b0584610d78565b905081515f03610b16579392505050565b805115610b48578181604051602001610b309291906115c0565b60405160208183030381529060405292505050919050565b610b5184610e17565b949350505050565b6103d0828260405180602001604052805f815250610e88565b5f828152600660205260409020610b898282611632565b506040518281527ff8e1a15aba9398e019f0b49df1a4fde98ee17ae345cb5f6b5e2c27f5033e8ce79060200160405180910390a15050565b5f6001600160e01b031982166380ac58cd60e01b1480610bf157506001600160e01b03198216635b5e139f60e01b145b8061030957506301ffc9a760e01b6001600160e01b0319831614610309565b8080610c2457506001600160a01b03821615155b15610ce5575f610c3384610734565b90506001600160a01b03831615801590610c5f5750826001600160a01b0316816001600160a01b031614155b8015610c725750610c70818461066f565b155b15610c9b5760405163a9fbf51f60e01b81526001600160a01b03841660048201526024016103f9565b8115610ce35783856001600160a01b0316826001600160a01b03167f8c5be1e5ebec7d5bd14f71427d1e84f3dd0314c0f7b2291e5b200ac8c7c3b92560405160405180910390a45b505b50505f90815260046020526040902080546001600160a01b0319166001600160a01b0392909216919091179055565b610d1f838383610e9f565b61047c576001600160a01b038316610d4d57604051637e27328960e01b8152600481018290526024016103f9565b60405163177e802f60e01b81526001600160a01b0383166004820152602481018290526044016103f9565b5f818152600660205260409020805460609190610d94906114f9565b80601f0160208091040260200160405190810160405280929190818152602001828054610dc0906114f9565b8015610e0b5780601f10610de257610100808354040283529160200191610e0b565b820191905f5260205f20905b815481529060010190602001808311610dee57829003601f168201915b50505050509050919050565b6060610e2282610734565b505f610e3860408051602081019091525f815290565b90505f815111610e565760405180602001604052805f815250610e81565b80610e6084610f00565b604051602001610e719291906115c0565b6040516020818303038152906040525b9392505050565b610e928383610f90565b61047c335f8585856109b0565b5f6001600160a01b03831615801590610b515750826001600160a01b0316846001600160a01b03161480610ed85750610ed8848461066f565b80610b515750505f908152600460205260409020546001600160a01b03908116911614919050565b60605f610f0c83610ff1565b60010190505f8167ffffffffffffffff811115610f2b57610f2b61127f565b6040519080825280601f01601f191660200182016040528015610f55576020820181803683370190505b5090508181016020015b5f19016f181899199a1a9b1b9c1cb0b131b232b360811b600a86061a8153600a8504945084610f5f57509392505050565b6001600160a01b038216610fb957604051633250574960e11b81525f60048201526024016103f9565b5f610fc583835f610779565b90506001600160a01b0381161561047c576040516339e3563760e11b81525f60048201526024016103f9565b5f8072184f03e93ff9f4daa797ed6e38ed64bf6a1f0160401b831061102f5772184f03e93ff9f4daa797ed6e38ed64bf6a1f0160401b830492506040015b6d04ee2d6d415b85acef8100000000831061105b576d04ee2d6d415b85acef8100000000830492506020015b662386f26fc10000831061107957662386f26fc10000830492506010015b6305f5e1008310611091576305f5e100830492506008015b61271083106110a557612710830492506004015b606483106110b7576064830492506002015b600a83106103095760010192915050565b6001600160e01b03198116811461070d575f80fd5b5f602082840312156110ed575f80fd5b8135610e81816110c8565b5f5b838110156111125781810151838201526020016110fa565b50505f910152565b5f81518084526111318160208601602086016110f8565b601f01601f19169290920160200192915050565b602081525f610e81602083018461111a565b5f60208284031215611167575f80fd5b5035919050565b80356001600160a01b0381168114611184575f80fd5b919050565b5f806040838503121561119a575f80fd5b6111a38361116e565b946020939093013593505050565b5f805f606084860312156111c3575f80fd5b6111cc8461116e565b92506111da6020850161116e565b9150604084013590509250925092565b5f602082840312156111fa575f80fd5b610e818261116e565b602080825282518282018190525f9190848201906040850190845b8181101561123a5783518352928401929184019160010161121e565b50909695505050505050565b5f8060408385031215611257575f80fd5b6112608361116e565b915060208301358015158114611274575f80fd5b809150509250929050565b634e487b7160e01b5f52604160045260245ffd5b604051601f8201601f1916810167ffffffffffffffff811182821017156112bc576112bc61127f565b604052919050565b5f67ffffffffffffffff8311156112dd576112dd61127f565b6112f0601f8401601f1916602001611293565b9050828152838383011115611303575f80fd5b828260208301375f602084830101529392505050565b5f805f806080858703121561132c575f80fd5b6113358561116e565b93506113436020860161116e565b925060408501359150606085013567ffffffffffffffff811115611365575f80fd5b8501601f81018713611375575f80fd5b611384878235602084016112c4565b91505092959194509250565b5f82601f83011261139f575f80fd5b610e81838335602085016112c4565b5f80604083850312156113bf575f80fd5b6113c88361116e565b9150602083013567ffffffffffffffff8111156113e3575f80fd5b6113ef85828601611390565b9150509250929050565b5f806040838503121561140a575f80fd5b6114138361116e565b91506114216020840161116e565b90509250929050565b5f806040838503121561143b575f80fd5b6114448361116e565b915060208084013567ffffffffffffffff80821115611461575f80fd5b818601915086601f830112611474575f80fd5b8135818111156114865761148661127f565b8060051b611495858201611293565b918252838101850191858101908a8411156114ae575f80fd5b86860192505b838310156114e8578235858111156114ca575f80fd5b6114d88c89838a0101611390565b83525091860191908601906114b4565b809750505050505050509250929050565b600181811c9082168061150d57607f821691505b60208210810361152b57634e487b7160e01b5f52602260045260245ffd5b50919050565b634e487b7160e01b5f52603260045260245ffd5b5f6001820161156257634e487b7160e01b5f52601160045260245ffd5b5060010190565b6001600160a01b03858116825284166020820152604081018390526080606082018190525f9061159b9083018461111a565b9695505050505050565b5f602082840312156115b5575f80fd5b8151610e81816110c8565b5f83516115d18184602088016110f8565b8351908301906115e58183602088016110f8565b01949350505050565b601f82111561047c57805f5260205f20601f840160051c810160208510156116135750805b601f840160051c820191505b81811015610ad1575f815560010161161f565b815167ffffffffffffffff81111561164c5761164c61127f565b6116608161165a84546114f9565b846115ee565b602080601f831160018114611693575f841561167c5750858301515b5f19600386901b1c1916600185901b178555610acf565b5f85815260208120601f198616915b828110156116c1578886015182559484019460019091019084016116a2565b50858210156116de57878501515f19600388901b60f8161c191681555b5050505050600190811b0190555056fea264697066735822122091251dd364c921d21feae93f8b352e4d7412d91fa8cbb1a6b916786aeeb69a9564736f6c63430008180033",
  "linkReferences": {},
  "deployedLinkReferences": {}
}